:1000260030313233343536373839D7B4CCACA3BA5D
:1000360000D5FDB3A32020202000D3D0BAA6C6F851
:10004600CCE500CEC2B6C8B9FDB8DF00CEC2B6C890
:10005600A3BA00000000000000000000000000003D
:10006600000000000000000000004000000000004A
:1000760000000000000000000000C00000000000BA
:1000860000000000000000000001C00000000000A9
:1000960000000000000000000003C0000000000097
:1000A60000000000000000000007C0000000000083
:1000B6000000000000000000000FC000000000006B
:1000C6000000000000000000001FC000000000004B
:1000D6000000000000000000003FC000000000001B
:1000E6000000000000000000007FC00000000000CB
:1000F600000000000000000000FFF8000000000003
:10010600000000000000000003FFFE0000000000E9
:1001160000000000000000000FFFFF80000000004C
:1001260000000000000000003FFFFFE000000000AC
:100136000000000000000000FFFFFFF800000000C4
:100146000000000000000003FFFFFFFE00000000AB
:100156000000000000000007FFFFFFFF0000000096
:10016600000000000000000FFFFFFFFF80000000FE
:10017600000000000000001FFFFFFFFFC00000009E
:10018600000000000000003FFFFFFFFFE00000004E
:10019600000000000000007FFFFFFFFFF0000000EE
:1001A600000000000000007FFFFFFFFFF8000000D6
:1001B60000000000000000FFFFFFFFFFFC00000042
:1001C60000000000000001FFFFFFFFFFFC00000031
:1001D60000000000000001FFFFFFFFFFFE0000001F
:1001E60000000000000001FFFFFFFFFFFF0000000E
:1001F60000000000000003FFFFFFFFFFFF000000FC
:1002060000000000000003FFFFFFFFFFFF000000EB
:1002160000000000000007FFFFFFFFFFFF80000057
:1002260000000000000007FFFFFFFFFFFF80000047
:1002360000000000000007FFFFFFFFFFFFC00000F7
:1002460000000000000007FFFFFFFFFFFFC00000E7
:1002560000000000000007FFFFFFFFFFFFC00000D7
:1002660000000000000007FFFFFFFFFFFFF0000097
:1002760000000000000007FFFFFFFFFFFFFC00007B
:1002860000000000000007FFFFFFFFFFFFFF000068
:1002960000000000000007FFFFFFFFFFFFFFC00098
:1002A60000000000000007FFFFFFFFFFFFFFF00058
:1002B60000000000000003FFFFFFFFFFFFFFE0005C
:1002C60000000000000003FFFFFFFFFFFFFF8000AC
:1002D60000000000000003FFFFFFFFFFFFFF00001C
:1002E60000000000000001FFFFFFFFFFFFFC000011
:1002F60000000000000001FFFFFFFFFFFFF000000D
:1003060000000000000001FFFFFFFFFFFFE000000C
:1003160000000000000000FFFFFFFFFFFFC000001D
:10032600000000000000007FFFFFFFFFFF0000004D
:10033600000000000000007FFFFFFFFFFC00000040
:10034600000000000000003FFFFFFFFFF800000074
:10035600000000000000007FFFFFFFFFF00000002C
:1003660000000000000000FFFFFFFFFFE0000000AC
:1003760000000000000000FFFFFFFFFFF00000008C
:1003860000000000000000FFFFFFFFFFF800000074
:10039600000000000000007FFFFFFFFFF8000000E4
:1003A600000000000000007FFFFFFFFFF8000000D4
:1003B600000000000000003FFFFFFFFFF00000000C
:1003C600000000000000001FFFFFFFFFE00000002C
:1003D600000000000000000FFFFFFFFF800000008C
:1003E600000000000000000FFFFFFFFE00000000FD
:1003F6000000000000000007FFFFFF800000000073
:100406000000000000000003FFFFFF0000000000E6
:100416000000000000000000FFFFF80000000000E0
:1004260000000000000000007FFFC0000000000088
:1004360000000000000000000000000000000000B6
:1004460000000000000000000000000000000000A6
:03045600000000A3
:0C0BD500060F00002E00A1E6C101C100C7
:100B2D00EF54F0F50D7E04EF7804088002C333D83E
:100B3D00FCF50E7FF8120B8DAF0D120B8DAF0E0263
:020B4D000B8D0E
:060A950014F9120716FF20
:100A9B00EF54F0F50D7E04EF7804088002C333D8D1
:100AAB00FCF50E7FFA120B8DAF0D120B8DAF0E02F4
:020ABB000B8DA1
:100B8D00E4FEC291EF30E704D2928002C292D2917C
:080B9D00EF25E0FF0EBE08EA9F
:010BA500222D
:100AE3008B088A09890AED7C00120B08AB08AA0956
:100AF300A90A120716600D050AE50A700205091214
:050B03000A9580E822C4
:100B0800BF0105750B808016BF0205750B90800E1E
:100B1800BF0305750B888006BF0403750B98E50BAA
:050B28002DFF020B2D62
:100B6F00D2937F30120B2D120B4F7F01120B2D12D0
:0E0B7F000B4F7F0C120B2D7F0A7E00020B53D2
:040B4F007F0A7E009B
:100B5300EF1FAA0670011E4A6011E4FDEDC394095C
:0B0B630050EEE4FC0CBCB1FC0D80F176
:010B6E002264
:060BA600C2907F017E00F9
:100BAC00E4FDFCC3ED9FEC9E5008000DBD00010C54
:020BBC0080F1C6
:010BBE002214
:060959008B088A09890ADF
:10095F007F34120B2DE4F50BE50B2480FF120B2DCA
:10096F007F80120B2DE4F50CAB08050AE50AAA09E6
:10097F0070020509120A95050CE50CC3941040E8A6
:10098F00050BE50BC3942040CFE4F50BE50B24805A
:10099F00FF120B2D7F88120B2DE4F50CAB08050A07
:1009AF00E50AAA0970020509120A95050CE50CC3A0
:1009BF00941040E8050BE50BC3942040CF7F36021F
:0209CF000B2DEE
:020A3D00AB0705
:100A3F00E4FAEB5401FFEBC313FBEF6007120BA6B5
:100A4F00D2908005120BA6C2907F28120BACD290C9
:090A5F007F01120BAC0ABA08D9A0
:010A6800226B
:100A0E00E4FBFAEBC313FBC2907F027E00120BAC29
:100A1E00D29030900543038080007F287E00120B19
:0E0A2E00ACD2907F01120BAC0ABA08D7AF030E
:010A3C002297
:100ABD00D290120BA8C2907F5E0E120BACD2907F1B
:100ACD000F1E120BAC2090FD7F647E00120BACD27A
:060ADD00907F96020BACB5
:0208D700AC076C
:1008D900AF05EFFEAD04EDFFE4AC0612065CE4FBE8
:1008E900FA7920783F120551E4FBFAF9783F1204AE
:1008F90060120695AB07AA067C007D6412072F8F4C
:10090900097C007D64AF03AE0212072F7E007F0AC7
:10091900CFCDCFCECCCE12072F8F08AE02AF037C3E
:10092900007D6412072F7E007F0ACFCDCFCECCCEBB
:1009390012072FAF0585090F8508108F12E50F9053
:0F094900002693F50FE51093F510E51293F512C4
:01095800227C
:030023000209D1FE
:0D09D100C0E0C0D075D000C000C006C00757
:1009DE00309804C298AF99EF64317019FE740F2EDF
:1009EE00F8E6F5993099FDC2990EBE04F075990A94
:0509FE003099FDC299D3
:0B0A0300D007D006D000D0D0D0E032E9
:100BBF0053890F438920439850758DFD758BFDC266
:060BCF00ABD2ACD28E2275
:03000B00020A697D
:100A6900C0E0758A00758CDC20B204D2018002C214
:100A790001E50F64326010E50F6431600AE50F6427
:0C0A8900306004D2008002C200D0E032D5
:10000E005389F0438902E4F58A758CDCC28DD2A93E
:05001E00D2AFD28C22DC
:10079200120B4F120BBF120B6F7BFF7A00795912AB
:1007A20009597F207E03120B537F34120B2D120B3B
:1007B2006F7BFF7A007930E4FD7F01120AE37BFF51
:1007C2007A0079527D027F04120AE3120ABD7FCCBD
:1007D200120A3D7F44120A3D7FE87E03120B531238
:1007E2000ABD7FCC120A3D7FBE120A3D120A0EA933
:1007F20007120A0EAD07AF011208D712000E300120
:10080200087BFF7A007940800C20001020010D7BCC
:10081200FF7A0079377D037F01120AE33000087BFB
:10082200FF7A007949800C20001020010D7BFF7AAD
:100832000079377D037F01120AE37B007A00790F8A
:090842007D057F04120AE38082A7
:10045900020701E86480F8E933E83360110460F0C9
:10046900ED33EC337009E8FCE9FDEAFEEBFF220409
:1004790060DED3EB9FEA9EE99DE8C2E78CF0C2F704
:1004890095F0400CE8CCF8E9CDF9EACEFAEBCFFBD0
:100499001206CC85D0F05804700320D5B3E8047057
:1004A900075002B2D502070B92D5EC0460F7E4CCF1
:1004B900C0E0C398F8603B94186008400DD0E0FB99
:1004C9000206E3E4FBFAC9FC8028E830E406E4C943
:1004D900FBE4CAFCE830E305E4C9CACBFCE85407ED
:1004E9006010F8C3E913F9EA13FAEB13FBEC13FCF8
:1004F900D8F130F52FC3E49CFCEF9BFFEE9AFEED9B
:1005090099FDD0E0FBEF4E4D4C701222DB03020740
:1005190008EC2CFCEF33FFEE33FEED33FDED30E755
:10052900EB0206E3EF2BFFEE3AFEED39FDD0E0FBDF
:1005390050130BBB000302070BED13FDEE13FEEF87
:0805490013FFEC13FC0206E3B2
:10055100EC4D6011E8497017ED33EC3304600DE4A4
:10056100FCFFFEFD22E933E8330470F802070112B3
:1005710006CC58046009E4CC2481500628500902B5
:10058100070B284003020708C0E0EB4A7044B9801A
:1005910006D0E0FB0206F7EF4E701CBD8008EBFFB2
:1005A100EAFEE9FD80EBE98DF0A4FEE5F002063AF2
:1005B100E9CDF9EAFEEBFFEF89F0A4FCE5F0CE8985
:1005C100F0A42EFFE435F0CD89F0A42DFEE435F042
:1005D1008067EF4E7005BD80D780C3EF8BF0A4AC70
:1005E100F0EE8BF0A42CFCE435F0F8EF8AF0A42CAB
:1005F100E5F038FCE433CB8DF0A42CFCE5F03BF8BE
:10060100EE8AF0A42CFCE5F038F8E433CF89F0A4AD
:100611002CFCE5F038CF3400CE89F0A42FFFE5F0B3
:100621003EFEE433C98DF0A42EFEE5F039CD8AF00B
:10063100A42FFFE5F03EFEE43DFD33D0E0FB500783
:100641000BBB000F02070BEC2CFCEF33FFEE33FE6C
:06065100ED33FD0206E39B
:1006570075F020800E75F010800575F0087D007E1E
:10066700007F003392D530D503120784EC33401056
:10067700EF33FFEE33FEED33FDEC33FCD5F0ED2227
:0E068700E5F0247EA2D513CC92E7CDCEFF2263
:10069500EDD2E7CD33EC3392D524814006E4FFFE5D
:1006A500FDFC22FCE4CFCECDCC24E0501174FF80BC
:1006B500EDC3CC13CCCD13CDCE13CECF13CF047059
:0706C500F030D5DE020784CE
:1006CC00E9D2E7C933E833F892D5EDD2E7CD33EC74
:0706DC0033FC5002B2D522ED
:1006E300EC30E7100FBF000C0EBE00080DBD000478
:1006F3000BEB6014A2D5EB13FCED92E7FD2274FF24
:10070300FCFDFEFF22E480F8A2D574FF13FC7D807C
:03071300E480EF90
:0300000002084BA8
:0C084B00787FE4F6D8FD75812002089249
:10071600BB010689828A83E0225002E722BBFE02E1
:09072600E32289828A83E4932214
:10072F00BC000BBE0029EF8DF084FFADF022E4CCAE
:10073F00F875F008EF2FFFEE33FEEC33FCEE9DEC77
:10074F00984005FCEE9DFE0FD5F0E9E4CEFD22EDBD
:10075F00F8F5F0EE8420D21CFEADF075F008EF2F07
:10076F00FFED33FD4007985006D5F0F222C398FDF8
:05077F000FD5F0EA2295
:0E078400C3E49FFFE49EFEE49DFDE49CFC2286
:10085700020792E493A3F8E493A34003F68001F21E
:1008670008DFF48029E493A3F85407240CC8C333A2
:10087700C4540F4420C8834004F456800146F6DF71
:10088700E4800B0102040810204080900BD5E47E21
:10089700019360BCA3FF543F30E509541FFEE49366
:1008A700A360010ECF54C025E060A840B8E493A32D
:1008B700FAE493A3F8E493A3C8C582C8CAC583CA58
:1008C700F0A3C8C582C8CAC583CADFE9DEE780BE10
:010BE1000013
:00000001FF
