:1001EF003031323334353637383954696D653A200A
:0101FF0000FF
:1001A900010C00011000011100010E00010F0001F6
:0E01B9000D00010800010900010A00010B0001
:08016000C2B4D2B37F017E009E
:10016800EF1FAA0670011E4A6013E4FCFDC3ED945C
:0D0178007DEC940050EA0DBD00010C80F0FC
:010185002257
:0701DC0093FF1201E37F3ADB
:0C01E300AB07D2B51201608B90C2B322B2
:0C021000AB07C2B51201608B90C2B32294
:100132007F86120210E50D9001EF93FF1201E3E5B5
:100142000F1201DCE50E93FF1201E3E5111201DC4F
:0E015200E51093FF1201E3E50C93FF0201E3B9
:10009A000508E508B43C05E4F5080509E509B43C9A
:1000AA0005E4F509050AE50AB41803E4F50AE508C2
:1000BA0075F00A8485F00CE50875F00A84F510E5F8
:1000CA000975F00A8485F011E50975F00A84F50EC0
:1000DA00E50A75F00A8485F00FE50A75F00A84F5D9
:0100EA000D08
:0100EB0022F2
:1001C8007F381202107F0C1202107F061202107F75
:0401D800010202100E
:10020000758901758CD8758AF0D2A9D2AFD28C22AB
:03000B000200EC04
:1000EC00C0E0C0F0C083C082C0D075D000C002C0D8
:0900FC0003C004C005C006C007E2
:10010500050B758CD8758AF0E50BB46406750B0084
:0601150012009A120132F3
:10011B00D007D006D005D004D003D002D0D0D082E7
:07012B00D083D0F0D0E032D8
:100186001201C87F327E001201687F80120210E4DD
:10019600F9E99001F993FF1201E309B906F3120296
:0301A6000080FED8
:0300000002000EED
:0C000E00787FE4F6D8FD758111020055E2
:10001A00020186E493A3F8E493A34003F68001F275
:10002A0008DFF48029E493A3F85407240CC8C333E7
:10003A00C4540F4420C8834004F456800146F6DFB6
:10004A00E4800B01020408102040809001A9E47E9C
:10005A00019360BCA3FF543F30E509541FFEE493AB
:10006A00A360010ECF54C025E060A840B8E493A372
:10007A00FAE493A3F8E493A3C8C582C8CAC583CA9D
:10008A00F0A3C8C582C8CAC583CADFE9DEE780BE55
:0101C7000037
:00000001FF
