:0A048900000102030405060708093C
:0A047E00C100060B000000434D0A08
:10000E00E4FDFCC3ED9FEC9E5008000DBD00010CFD
:02001E0080F16F
:0100200022BD
:1003D600AD071FED6011E4FEEEC3940950F2E4FD93
:0703E6000DBDB1FC0E80F11A
:0103ED0022ED
:0D043D00D290C291D292C293D294D2952255
:0D044A00C290D291C292D293D294D2952248
:0D045700C290C291C292C293D294D295225B
:0D046400D290C291C292D293D294D295222E
:0D047100C290D291D292C293D294D2952221
:10038300E50A249F604614604624FE6039146039F0
:100393002402703E20001612043DD2B77F0A7E006D
:1003A30012000EC2B71203257F640203D6E50B7059
:1003B30021E50CC39404501A12044A7FF41203D6A5
:1003C300120457C2002202044A02045702046412B0
:0303D30004712290
:10032500AC08AD09E41201D17B8E7AE3798A783F76
:10033500120026E4FBFA7968784212012F12020AAC
:10034500EF75F06484FEEF75F06484ADF0ED75F043
:100355000A84FCED75F00A84AFF0EE90048993F5FC
:100365000BAE04EE93F50CEF93F50DE50B7009E577
:0D0375000CC394045002D200E4F508F50911
:010382002258
:03000B00020406E6
:10040600C0E020B20A0509E50970F7050880F3C2C5
:060416008CD2A8D0E032F8
:10041C005389F0438902758AFF758CFFC28DD2A96E
:03042C00C28C225D
:03000300020006F2
:05000600C2A8D28C32FB
:07049C00C288D2A8D2AF22F2
:0300230002049341
:09049300309805C29885990A32DF
:1003EE0053890F438920439850758DFD758DFDC23D
:0803FE00ABD2ACD2AFD28E22CB
:0E042F001203EE12041C12049C12038380FBC5
:10002600EC4D6011E8497017ED33EC3304600DE4D4
:10003600FCFFFEFD22E933E8330470F80202761273
:10004600024158046009E4CC248150062850090274
:10005600028028400302027DC0E0EB4A7044B9806A
:1000660006D0E0FB02026CEF4E701CBD8008EBFF71
:10007600EAFEE9FD80EBE98DF0A4FEE5F002010F52
:10008600E9CDF9EAFEEBFFEF89F0A4FCE5F0CE89B5
:10009600F0A42EFFE435F0CD89F0A42DFEE435F072
:1000A6008067EF4E7005BD80D780C3EF8BF0A4ACA0
:1000B600F0EE8BF0A42CFCE435F0F8EF8AF0A42CDB
:1000C600E5F038FCE433CB8DF0A42CFCE5F03BF8EE
:1000D600EE8AF0A42CFCE5F038F8E433CF89F0A4DE
:1000E6002CFCE5F038CF3400CE89F0A42FFFE5F0E4
:1000F6003EFEE433C98DF0A42EFEE5F039CD8AF03C
:10010600A42FFFE5F03EFEE43DFD33D0E0FB5007B3
:100116000BBB000F020280EC2CFCEF33FFEE33FE2C
:06012600ED33FD0202585A
:10012C00020280EC5D046005E8590470030202765B
:10013C00120241580460F6EC4860F2EC7004FDFECB
:10014C00FF22C860DB2481C85009C39860025006A6
:10015C0002027D9850CAF582E9294B4A7005AB82A0
:10016C0002026C75F0007C1A7880C3EF9BEE9AED5E
:10017C0099400DC3EF9BFFEE9AFEED99FDE842F01E
:10018C00DC23ACF0D0E0FFD0E0FED0E0FDAB822071
:10019C00E7101BEB60BAEC2CFCEF33FFEE33FEEDFB
:1001AC0033FD020258E803F830E705C0F075F000A3
:1001BC00EF2FFFEE33FEED33FD40B830E7C280AADF
:1001CC0075F020800E75F010800575F0087D007EAE
:1001DC00007F003392D530D50312028BEC334010E4
:1001EC00EF33FFEE33FEED33FDEC33FCD5F0ED22B7
:0E01FC00E5F0247EA2D513CC92E7CDCEFF22F3
:10020A00EDD2E7CD33EC3392D524814006E4FFFEEC
:10021A00FDFC22FCE4CFCECDCC24E0501174FF804B
:10022A00EDC3CC13CCCD13CDCE13CECF13CF0470E8
:07023A00F030D5DE02028B5B
:10024100E9D2E7C933E833F892D5EDD2E7CD33EC03
:0702510033FC5002B2D5227C
:10025800EC30E7100FBF000C0EBE00080DBD000407
:100268000BEB6014A2D5EB13FCED92E7FD2274FFB3
:10027800FCFDFEFF22E480F8A2D574FF13FC7D800C
:03028800E480EF20
:0300000002029960
:0C029900787FE4F6D8FD7581200202E0B9
:0E028B00C3E49FFFE49EFEE49DFDE49CFC2284
:1002A50002042FE493A3F8E493A34003F68001F23C
:1002B50008DFF48029E493A3F85407240CC8C3335A
:1002C500C4540F4420C8834004F456800146F6DF29
:1002D500E4800B010204081020408090047EE47E37
:1002E500019360BCA3FF543F30E509541FFEE4931E
:1002F500A360010ECF54C025E060A840B8E493A3E5
:10030500FAE493A3F8E493A3C8C582C8CAC583CA0F
:10031500F0A3C8C582C8CAC583CADFE9DEE780BEC7
:010488000073
:00000001FF
