:0300000002091DD5
:10000B00020E160202B6E86480F8E933E833601199
:10001B000460F0ED33EC337009E8FCE9FDEAFEEB2C
:10002B00FF220460DED3EB9FEA9EE99DE8C2E78CDA
:10003B00F0C2F795F0400CE8CCF8E9CDF9EACEFA2E
:10004B00EBCFFB12028185D0F05804700320D5B39F
:10005B00E80470075002B2D50202C092D5EC0460DE
:10006B00F7E4CCC0E0C398F8603B94186008400DEF
:10007B00D0E0FB020298E4FBFAC9FC8028E830E4EC
:10008B0006E4C9FBE4CAFCE830E305E4C9CACBFCCF
:10009B00E854076010F8C3E913F9EA13FAEB13FB02
:1000AB00EC13FCD8F130F52FC3E49CFCEF9BFFEE77
:1000BB009AFEED99FDD0E0FBEF4E4D4C701222DB1A
:1000CB00030202BDEC2CFCEF33FFEE33FEED33FDF0
:1000DB00ED30E7EB020298EF2BFFEE3AFEED39FD28
:1000EB00D0E0FB50130BBB00030202C0ED13FDEE7F
:1000FB0013FEEF13FFEC13FC020298EC4D6011E8BA
:10010B00497017ED33EC3304600DE4FCFFFEFD2268
:10011B00E933E8330470F80202B612028158046026
:10012B0009E4CC248150062850090202C028400360
:10013B000202BDC0E0EB4A7044B98006D0E0FB027E
:10014B0002ACEF4E701CBD8008EBFFEAFEE9FD80B0
:10015B00EBE98DF0A4FEE5F00201EFE9CDF9EAFE43
:10016B00EBFFEF89F0A4FCE5F0CE89F0A42EFFE4C1
:10017B0035F0CD89F0A42DFEE435F08067EF4E709D
:10018B0005BD80D780C3EF8BF0A4ACF0EE8BF0A451
:10019B002CFCE435F0F8EF8AF0A42CE5F038FCE405
:1001AB0033CB8DF0A42CFCE5F03BF8EE8AF0A42CBD
:1001BB00FCE5F038F8E433CF89F0A42CFCE5F038FB
:1001CB00CF3400CE89F0A42FFFE5F03EFEE433C917
:1001DB008DF0A42EFEE5F039CD8AF0A42FFFE5F0CB
:1001EB003EFEE43DFD33D0E0FB50070BBB000F029E
:1001FB0002C0EC2CFCEF33FFEE33FEED33FD0202BD
:10020B009875F020800E75F010800575F0087D0054
:10021B007E007F003392D530D503120366EC33405A
:10022B0010EF33FFEE33FEED33FDEC33FCD5F0ED89
:10023B0022E5F0247EA2D513CC92E7CDCEFF22EDA2
:10024B00D2E7CD33EC3392D524814006E4FFFEFD9B
:10025B00FC22FCE4CFCECDCC24E0501174FF80ED1A
:10026B00C3CC13CCCD13CDCE13CECF13CF0470F0A4
:10027B0030D5DE020366E9D2E7C933E833F892D50D
:10028B00EDD2E7CD33EC33FC5002B2D522EC30E7A4
:10029B00100FBF000C0EBE00080DBD00040BEB6071
:1002AB0014A2D5EB13FCED92E7FD2274FFFCFDFECF
:1002BB00FF22E480F8A2D574FF13FC7D80E480EF6D
:1002CB00BB010689828A83E0225002E722BBFE0231
:1002DB00E32289828A83E49322BB010CE58229F510
:1002EB0082E5833AF583E0225006E92582F8E6227F
:1002FB00BBFE06E92582F8E222E58229F582E58339
:10030B003AF583E49322BC000BBE0029EF8DF084F9
:10031B00FFADF022E4CCF875F008EF2FFFEE33FEC3
:10032B00EC33FCEE9DEC984005FCEE9DFE0FD5F0FA
:10033B00E9E4CEFD22EDF8F5F0EE8420D21CFEAD03
:10034B00F075F008EF2FFFED33FD4007985006D501
:10035B00F0F222C398FD0FD5F0EA22C3E49FFFE42D
:10036B009EFEE49DFDE49CFC22751B01751CF4EFC5
:10037B00B40800400302065C90038AF82828730235
:10038B0004D00205900203A20204720205F30206D6
:10039B005C02040A0205313098FDAE99EE644160AF
:1003AB005AEE6454605574232522F8A6067423254F
:1003BB0022F8E6FF640A701B74222522F8E6B40DBE
:1003CB001274212522F8E6B44B09852273E4F52239
:1003DB00D20022EFB40A1874222522F8E6B40D0FCE
:1003EB0074212522F8E6B45206E4F522C200220558
:1003FB0022E522D394C840030205EDC298809830C1
:10040B0098FDAE99EE6441605AEE645460557423C6
:10041B002522F8A60674232522F8E6FF640A701B32
:10042B0074222522F8E6B40D1274212522F8E6B4C5
:10043B004B09852273E4F522D20322EFB40A187418
:10044B00222522F8E6B40D0F74212522F8E6B452CA
:10045B0006E4F522C203220522E522D394C8400309
:10046B000205EDC29880983098FDAE99EE6441601C
:10047B0050EE6454604B74232522F8A60674232592
:10048B0022F8E6FFB4201274222522F8E6B43E09C6
:10049B00852273E4F522D20222EFB40A18742225C6
:1004AB0022F8E6B40D0F74212522F8E6B45206E4C7
:1004BB00F522C202220522E522D394C8400302058D
:1004CB00EDC29880A23098FDAE99EE64416053EE78
:1004DB006454604E74232522F8A60674232522F853
:1004EB00E6FFB40A1574222522F8E6B40D0C74212C
:1004FB002522F8E6B44B030205C2EFB40A187422A6
:10050B002522F8E6B40D0F74212522F8E6B4520625
:10051B00E4F522C205220522E522D394C84003024A
:10052B0005EDC298809F3098FDAE99EE6441605105
:10053B00EE6454604C74232522F8A60674232522FE
:10054B00F8E6FFB40A1474222522F8E6B40D0B74F6
:10055B00212522F8E6B44B02805DEFB40A18742211
:10056B002522F8E6B40D0F74212522F8E6B45206C5
:10057B00E4F522C204220522E522D394C84002806E
:10058B0061C29880A13098FDAE99EE64416055EE42
:10059B006454605074232522F8A60674232522F890
:1005AB00E6FFB40A1874222522F8E6B40D0F742165
:1005BB002522F8E6B44B06852273020654EFB40AE3
:1005CB001874222522F8E6B40D0F74212522F8E6C3
:1005DB00B45206E4F522C206220522E522D394C8C2
:1005EB0040028065C298809D3098FDAE99EE6441C3
:1005FB00605BEE6454605674232522F8A6067423C0
:10060B002522F8E6FF640A701B74222522F8E6B453
:10061B000D1274212522F8E6B44B09852273E4F5FB
:10062B0022D20122EFB40A1874222522F8E6B40D67
:10063B000F74212522F8E6B45206E4F522C20122FA
:10064B000522E522D394C84004E4F52222C2988007
:10065B009722EFB40800400302070B90066DF828B1
:10066B0028730206850206960206A70206B8020642
:10067B00C90206DA0206EB0206FC900E7BE493FE3F
:10068B00751BFF751C0E751D7B8075900E84E49396
:10069B00FE751BFF751C0E751D848064900E8CE41B
:1006AB0093FE751BFF751C0E751D8C8053900E975A
:1006BB00E493FE751BFF751C0E751D978042900E03
:1006CB00A0E493FE751BFF751C0E751DA080319069
:1006DB000EADE493FE751BFF751C0E751DAD8020D2
:1006EB00900EC2E493FE751BFF751C0E751DC28028
:1006FB000F900EB8E493FE751BFF751C0E751DB89D
:10070B00E4FFEFC39E5020AB1BE51D2401F9E4353C
:10071B001CFAEF7C0029F9EC3AFA1202CBF599306E
:10072B0099FDC2990F80DB22E4F517E4FF12065DF9
:10073B00E4FF1203747F647E00120D6B120DB61270
:10074B000E042005090517E517C3940A40DDE4F5EF
:10075B00177F0712065D7F071203747F647E0012FA
:10076B000D6B120D4A120E042004090517E517C371
:10077B00940A40DDE4F5177F0112065D7F01120339
:10078B00747F647E00120D6B120DF1120E042006A5
:10079B00090517E517C3940A40DDE4F5177F04122A
:1007AB00065D7F041203747F647E00120D6B120EC4
:1007BB00042001090517E517C3940A40E0E4F51777
:1007CB007F0612065D7F061203747F647E00120D96
:1007DB006B120E042003090517E517C3940A40E0BA
:1007EB0022017900017A00017800071030302E3099
:1007FB00A1E600C10B205023000000000000000008
:10080B0000000000000000000000000000000000DD
:10081B0000000000000000000000000000000000CD
:10082B0000000000000000000000000000000000BD
:10083B0000000000000000000000000000000000AD
:10084B0000000000000000000375000000017400B0
:10085B00C105C100C103C106C102C107C10AC10460
:10086B00C101C108C109012200017300C10C0309B8
:10087B00FF0EF1030CFF0F0C01080000EF146011C9
:10088B0004701A7517FF75180E75192A751A2480BE
:10089B000C7517FF75180E75194F751A4C7F0612CC
:1008AB00065D7F061203747F647E00120D6B7F0260
:1008BB0012065D7F021203747F647E00120D6B7F44
:1008CB000312065DE4FFEF900E6C93F5993099FDE2
:1008DB00C2990FBF0FF07F031203747F647E001267
:1008EB000D6BE4FFEFC3951A5018AB17AA18A91993
:1008FB008F827583001202E4F5993099FDC2990F2E
:10090B0080E27F647E00120D6B75991A3099FDC2DF
:10091B009922787FE4F6D8FD75817A020964020A80
:10092B0086E493A3F8E493A34003F68001F208DF77
:10093B00F48029E493A3F85407240CC8C333C4549C
:10094B000F4420C8834004F456800146F6DFE48050
:10095B000B01020408102040809007ECE47E019309
:10096B0060BCA3FF543F30E509541FFEE493A36022
:10097B00010ECF54C025E060A840B8E493A3FAE47D
:10098B0093A3F8E493A3C8C582C8CAC583CAF0A3CE
:10099B00C8C582C8CAC583CADFE9DEE780BEAC071B
:1009AB00AF05EFFEAD04EDFFE4AC06120211E4FB64
:1009BB00FA7920783F120106E4FBFAF9783F12002E
:1009CB001512024AAB07AA067C007D641203118F35
:1009DB00187C007D64AF03AE021203117E007F0A08
:1009EB00CFCDCFCECCCE1203118F17AE02AF037C7F
:1009FB00007D641203117E007F0ACFCDCFCECCCE0B
:100A0B00120311AF05E518900F1393F510E517932B
:100A1B00F511EF93F51322120C5BE5106438603C73
:100A2B00E51064306036E51064316030E5106432F7
:100A3B00602AE508146018047024E511B4330CD255
:100A4B000B7F011208877508018013C20B800FE51D
:100A5B001164336009C20BE4F5088002C20B7D05FB
:100A6B007C007F01120CE17410250FF8E6FF600784
:100A7B00120D28050F80F0E4F50F22120DA0120CB9
:100A8B00B9120BE4C2A67FD07E07120D6B120DCAF2
:100A9B00120A22120B44120AE630050C30040930FC
:100AAB000306300603200106E4F574120733E578DC
:100ABB001460150470DA30B2D7D20CE4FF12088739
:100ACB00757801E4F57980C8E579D394C840C1E421
:100ADB00F57920B2BBF578C20C80B530090B750CDB
:100AEB00FF750D0F750E03800F20090C200809757B
:100AFB000CFF750D0F750E0C7D027C007F02120C26
:100B0B00E1AB0CAA0DA90E850F827583001202E4CE
:100B1B00FF6007120D28050F80E7E4F50F7D05FC3C
:100B2B007F04120CE17475250FF8E6FF6007120DB8
:100B3B0028050F80F0E4F50F22300C0E300B0B75EF
:100B4B0009FF750A0E750BE88025300C0B7509FF34
:100B5B00750A0E750BDF8017300B0B7509FF750AC5
:100B6B000E750BD680097509FF750A0E750BF1E42E
:100B7B00FDFC7F01120CE1AB09AA0AA90B850F82C0
:100B8B007583001202E4FF6007120D28050F80E742
:100B9B00E4F50F228F17E4F518E5175401FFE5175D
:100BAB00C313F517EF600DC2B67F017E00120DDE89
:100BBB00D2B6800BC2B67F017E00120DDEC2B67FAD
:100BCB00287E00120DDED2B67F017E00120DDE05EF
:100BDB0018E518C3940840C122E4FDFC7F04120CF5
:100BEB00E1E517900E1F93FF6007120D2805178084
:100BFB00F0E4F5177D02FC7F02120CE1AB0CAA0DA1
:100C0B00A90E8517827583001202E4FF6007120D8F
:100C1B0028051780E722E4F518F517E518C313F537
:100C2B0018C2B67F027E00120DDED2B630B6054377
:100C3B00188080007F287E00120DDED2B67F017EE9
:100C4B0000120DDE0517E517C3940840CEAF18222E
:100C5B00120C8B7FCC120B9F7F44120B9F7FE87E75
:100C6B0003120D6B120C8B7FCC120B9F7FBE120BE2
:100C7B009F120C21C007120C21AD07D0070209A946
:100C8B00D2B67F017E00120DDEC2B67F5E7E0112F0
:100C9B000DDED2B67F0F7E00120DDE20B6FD7F6417
:100CAB007E00120DDED2B67F967E00020DDEC2A74D
:100CBB00D2A27F30120D067F0A7E00120D6B7F01D0
:100CCB00120D067F0A7E00120D6B7F0C120D067F34
:100CDB000A7E00020D6BBF01057518808016BF02DE
:100CEB0005751890800EBF03057518888006BF0424
:100CFB0003751898E5182DFF020D06EF54F0F51942
:100D0B007E04EF7804088002C333D8FCF51A7FF811
:100D1B00120D87AF19120D87AF1A020D87EF54F022
:100D2B00F5187E04EF7804088002C333D8FCF5195C
:100D3B007FFA120D87AF18120D87AF19020D87744A
:100D4B001B2573F8E6FFB4220E741A2573F8E6B46C
:100D5B004D05D209D20422EFB43004C209C20822D5
:100D6B00EF1FAA0670011E4A6011E4FDEDC3940942
:100D7B0050EEE4FC0CBCB1FC0D80F122E4FEC2A4ED
:100D8B00EF30E704D2A38002C2A3D2A4EF25E0FF89
:100D9B000EBE08EA22538E7F5389F0438901E4F596
:100DAB008A758CDCD2A9D2AFD28C22741B2573F836
:100DBB00E6FFB43103D20522EFB43002C205225351
:100DCB00890F438920439850758DFD758BFDC2AB00
:100DDB00D28E22E4FDFCC3ED9FEC9E5008000DBDAE
:100DEB0000010C80F12274172573F8E6F576741662
:100DFB002573F8E6F575D20622E4FFEFC395735021
:100E0B000974232FF876010F80F122758A00758CF7
:100E1B00DC057932B5B1C7B0D0C5BAC5A3BA0038B5
:100E2B004236363534344146463141353344313719
:100E3B00334230363730393542423336433134342E
:100E4B004635330038423636353434414646314127
:100E5B0036453239354541363846433739414438C2
:100E6B0000223133313239343333303337220D0AE8
:100E7B00084154255453494D0D0741542B435351AD
:100E8B000D0A41542B434D47463D310D0841542B20
:100E9B00434D47533D0C41542B434E4D493D322C52
:100EAB00310D0A41542B434D47523D780D094154A6
:100EBB002B434F50533F0D1341542B43534D503D38
:100ECB0031372C3136372C302C380DCEC2B6C8B159
:100EDB00A8BEAF00C6F8CCE5B1A8BEAF00BEAFB898
:100EEB00E6A3A1A3A100D5FDB3A32020202000D60B
:100EFB00D0B9FAD2C6B6AF00D6D0B9FAC1AACDA82E
:100F0B0000CEDEB7FECEF10030313233343536371A
:020F1B00383963
:00000001FF
