:1000D90010083F065B4F666D7D077F6F777C395E41
:0200E90079712B
:1000BB00D3EF9400EE940040147D6E7C00ED1D7028
:0D00CB00011CED4C70F7EF1F70E61E80E386
:0100D8002205
:10008F00E4FBFA7592FF7591FF74082BF8E6F59073
:10009F007FE87E031200BB0BBB00010AD3EB940F6A
:0C00AF00EA6480948040E2E4FAFB80DD0B
:03000000020003F8
:0C000300787FE4F6D8FD75811702004AF2
:10000F0002008FE493A3F8E493A34003F68001F278
:10001F0008DFF48029E493A3F85407240CC8C333F2
:10002F00C4540F4420C8834004F456800146F6DFC1
:10003F00E4800B01020408102040809000D9E47E78
:10004F00019360BCA3FF543F30E509541FFEE493B6
:10005F00A360010ECF54C025E060A840B8E493A37D
:10006F00FAE493A3F8E493A3C8C582C8CAC583CAA8
:10007F00F0A3C8C582C8CAC583CADFE9DEE780BE60
:0100EB000014
:00000001FF
