:0D0B7600020B0005010801010900010A0041
:0C0B8400758901758CD8758AF0D28C221E
:100B6600758910758DD8758BF0D2AFD2ABD28E2227
:03001B00020800D8
:10080000C0E0C0F0C083C082C0D075D000C000C0BE
:0D08100001C002C003C004C005C006C0073F
:10081D00E5081460450460030208B4750801E50E8F
:10082D0024D4FFE50D3449FEE433FDE433FCE4FB51
:10083D007A01F9F8120AED8F8DE50E24D4FFE50D3E
:10084D003449FEE433FDE433FCE4FB7A01F9F8129C
:10085D000AEDAF038F8BC297804D750800AE0DAFBB
:10086D000EAB07AA06E4C39BFFE49AFE7401940045
:10087D00FDE49400FCE4FB7A01F9F8120AED8F8D8A
:10088D00AE0DAF0EAB07AA06E4C39BFFE49AFE7450
:10089D00019400FDE49400FCE4FB7A01F9F8120ADE
:0708AD00EDAF038F8BD29722
:1008B400D007D006D005D004D003D002D001D00098
:0B08C400D0D0D082D083D0F0D0E03242
:100A8D00E4FFA29633FEEF14600D14600D14602781
:100A9D0024037049EE8046EE80430509E509D394A1
:100AAD00644005E4F5098035EE64017030050CE510
:100ABD000C702A050B80260509BE0100E509D394AB
:100ACD000A400BE4F509050CE50C7002050BE50C6D
:0F0ADD00641A450B7007F50B750C058000AF0C04
:010AEC0022E7
:100A2900E4FFA29533FEEF14600D14600D14602DE0
:100A39002403704DEE804AEE8047050AE50AD394F7
:100A4900644005E4F50A8039EE64017034E50C155B
:100A59000C7002150BE50C450B7026801D050ABEAE
:100A69000100E50AD3940A4018E4F50AE50C150CCF
:100A79007002150BE50C450B7007F50B750C018021
:030A890000AF0CAF
:010A8C002247
:100B3100120B84120B66308DFDC28D209612120AA3
:100B41008D120A8DEF75F064A485F00DF50E80E627
:100B51002095E3120A29120A29EF75F064A485F0A1
:050B61000DF50E80D12E
:0300000002099D55
:0C099D00787FE4F6D8FD75810E0209E4B5
:100AED00C2D5E830E70FB2D5E4C39BFBE49AFAE434
:100AFD0099F9E498F8EC30E717B2D5120B231209E7
:100B0D000BE4C39BFBE49AFAE499F9E498F88003AB
:100B1D0012090B30D50DE4C39FFFE49EFEE49DFD4D
:040B2D00E49CFC2226
:1009A900020B31E493A3F8E493A34003F68001F228
:1009B90008DFF48029E493A3F85407240CC8C3334F
:1009C900C4540F4420C8834004F456800146F6DF1E
:1009D900E4800B0102040810204080900B76E47E2D
:1009E900019360BCA3FF543F30E509541FFEE49313
:1009F900A360010ECF54C025E060A840B8E493A3DA
:100A0900FAE493A3F8E493A3C8C582C8CAC583CA04
:100A1900F0A3C8C582C8CAC583CADFE9DEE780BEBC
:010B83000071
:1008CF0075F008758200EF2FFFEE33FECD33CDCCE0
:1008DF0033CCC58233C5829BED9AEC99E582984063
:1008EF000CF582EE9BFEED9AFDEC99FC0FD5F0D640
:1008FF00E4CEFBE4CDFAE4CCF9A88222B800C1B96A
:10090F000059BA002DEC8BF084CFCECDFCE5F0CBA7
:10091F00F97818EF2FFFEE33FEED33FDEC33FCEBE0
:10092F0033FB10D703994004EB99FB0FD8E5E4F99B
:10093F00FA227818EF2FFFEE33FEED33FDEC33FC88
:10094F00C933C910D7059BE99A4007EC9BFCE99A7C
:10095F00F90FD8E0E4C9FAE4CCFB2275F010EF2FC1
:10096F00FFEE33FEED33FDCC33CCC833C810D707C1
:10097F009BEC9AE899400AED9BFDEC9AFCE899F8FC
:0E098F000FD5F0DAE4CDFBE4CCFAE4C8F9228F
:00000001FF
