:10000000020003787FE4F6D8FD75814902004A02B8
:10001000013BE493A3F8E493A34003F68001F208C4
:10002000DFF48029E493A3F85407240CC8C333C435
:10003000540F4420C8834004F456800146F6DFE4A0
:10004000800B010204081020408090008FE47E01A4
:100050009360BCA3FF543F30E509541FFEE493A313
:1000600060010ECF54C025E060A840B8E493A3FA25
:10007000E493A3F8E493A3C8C582C8CAC583CAF0B1
:10008000A3C8C582C8CAC583CADFE9DEE780BE202F
:100090004208000000010101000100000000010110
:1000A000000000010001000000000100000100014B
:1000B0000000010101010101010100010100010134
:1000C0000100000100010100010100000001010028
:1000D0000101000000E4FDFCC3ED9FEC9E5015E41F
:1000E000FBFA0BBB00010AEB64784A70F50DBD000A
:1000F000010C80E4227D4212010FB4010512019A25
:100100008003120190740129F9E43AFADDE922BB77
:10011000010689828A83E0225002E722BBFE02E3C5
:100120002289828A83E493227D0CD291120166C2D5
:100130009112017CDDF4C2910201861201287B003C
:100140007A0079081200F51201A480FEEF1FAC06B8
:1001500070011E4C60030080F3220000007F097EC6
:10016000EADEFEDFFC2200007F057E12DEFEDFFC01
:100170002200007F097E60DEFEDFFC22007F057E1C
:1001800081DEFEDFFC22007F277EB7DEFEDFFC2261
:10019000D291120166C29102015AD291120171C22A
:0D01A0009102017C7F6C7E91DEFEDFFC226F
:00000001FF
