:1000000002035E0202ABE86480F8E933E833601172
:100010000460F0ED33EC337009E8FCE9FDEAFEEB37
:10002000FF220460DED3EB9FEA9EE99DE8C2E78CE5
:10003000F0C2F795F0400CE8CCF8E9CDF9EACEFA39
:10004000EBCFFB12027685D0F05804700320D5B3B5
:10005000E80470075002B2D50202B592D5EC0460F4
:10006000F7E4CCC0E0C398F8603B94186008400DFA
:10007000D0E0FB02028DE4FBFAC9FC8028E830E402
:1000800006E4C9FBE4CAFCE830E305E4C9CACBFCDA
:10009000E854076010F8C3E913F9EA13FAEB13FB0D
:1000A000EC13FCD8F130F52FC3E49CFCEF9BFFEE82
:1000B0009AFEED99FDD0E0FBEF4E4D4C701222DB25
:1000C000030202B2EC2CFCEF33FFEE33FEED33FD06
:1000D000ED30E7EB02028DEF2BFFEE3AFEED39FD3E
:1000E000D0E0FB50130BBB00030202B5ED13FDEE95
:1000F00013FEEF13FFEC13FC02028DEC4D6011E8D0
:10010000497017ED33EC3304600DE4FCFFFEFD2273
:10011000E933E8330470F80202AB12027658046047
:1001200009E4CC248150062850090202B528400376
:100130000202B2C0E0EB4A7044B98006D0E0FB0294
:1001400002A1EF4E701CBD8008EBFFEAFEE9FD80C6
:10015000EBE98DF0A4FEE5F00201E4E9CDF9EAFE59
:10016000EBFFEF89F0A4FCE5F0CE89F0A42EFFE4CC
:1001700035F0CD89F0A42DFEE435F08067EF4E70A8
:1001800005BD80D780C3EF8BF0A4ACF0EE8BF0A45C
:100190002CFCE435F0F8EF8AF0A42CE5F038FCE410
:1001A00033CB8DF0A42CFCE5F03BF8EE8AF0A42CC8
:1001B000FCE5F038F8E433CF89F0A42CFCE5F03806
:1001C000CF3400CE89F0A42FFFE5F03EFEE433C922
:1001D0008DF0A42EFEE5F039CD8AF0A42FFFE5F0D6
:1001E0003EFEE43DFD33D0E0FB50070BBB000F02A9
:1001F00002B5EC2CFCEF33FFEE33FEED33FD0202D3
:100200008D75F020800E75F010800575F0087D006A
:100210007E007F003392D530D503120350EC33407B
:1002200010EF33FFEE33FEED33FDEC33FCD5F0ED94
:1002300022E5F0247EA2D513CC92E7CDCEFF22EDAD
:10024000D2E7CD33EC3392D524814006E4FFFEFDA6
:10025000FC22FCE4CFCECDCC24E0501174FF80ED25
:10026000C3CC13CCCD13CDCE13CECF13CF0470F0AF
:1002700030D5DE020350E9D2E7C933E833F892D52E
:10028000EDD2E7CD33EC33FC5002B2D522EC30E7AF
:10029000100FBF000C0EBE00080DBD00040BEB607C
:1002A00014A2D5EB13FCED92E7FD2274FFFCFDFEDA
:1002B000FF22E480F8A2D574FF13FC7D80E480EF78
:1002C000BB010689828A83E0225002E722BBFE023C
:1002D000E32289828A83E49322F8BB010DE5822917
:1002E000F582E5833AF583E8F0225006E92582C8D5
:1002F000F622BBFE05E92582C8F222BC000BBE0037
:1003000029EF8DF084FFADF022E4CCF875F008EF12
:100310002FFFEE33FEEC33FCEE9DEC984005FCEE37
:100320009DFE0FD5F0E9E4CEFD22EDF8F5F0EE8468
:1003300020D21CFEADF075F008EF2FFFED33FD402D
:1003400007985006D5F0F222C398FD0FD5F0EA22A7
:10035000C3E49FFFE49EFEE49DFDE49CFC22787FC5
:10036000E4F6D8FD75812D0203A502069AE493A355
:10037000F8E493A34003F68001F208DFF48029E457
:1003800093A3F85407240CC8C333C4540F4420C8A3
:10039000834004F456800146F6DFE4800B0102043A
:1003A000081020408090065AE47E019360BCA3FFB1
:1003B000543F30E509541FFEE493A360010ECF546F
:1003C000C025E060A840B8E493A3FAE493A3F8E45E
:1003D00093A3C8C582C8CAC583CAF0A3C8C582C8CA
:1003E000CAC583CADFE9DEE780BEAC07AF05EFFE12
:1003F000AD04EDFFE4AC06120206E4FBFA792078C6
:100400003F1200FBE4FBFAF9783F12000A12023FA8
:10041000AB07AA067C007D641202FB8F197C007D6D
:1004200064AF03AE021202FB7E007F0ACFCDCFCEB7
:10043000CCCE1202FB8F18AE02AF037C007D64129B
:1004400002FB7E007F0ACFCDCFCECCCE1202FBAF17
:1004500005E51990071193F522E51893F523EF931D
:10046000F525221205FF7FCC1204DB7F441204DB4A
:10047000E521700C7521017F207E0312067E8035F8
:10048000E5216031E4F5177D7E7F271206F37B00BE
:100490007A007912751F057FA012059C7B007A00F7
:1004A00079121205207F327E0012067E0517E517AD
:1004B000C3940440D21205FF7FCC1204DB7FBE122E
:1004C00004DB120562C007120562AD07D0071203F4
:1004D000EA852213852314852515228F18E4F51942
:1004E000E5185401FFE518C313F518EF600DC2B30A
:1004F0007F017E001206CDD2B3800BC2B37F017E96
:10050000001206CDC2B37F287E001206CDD2B37F83
:10051000017E001206CD0519E519C3940840C122D9
:100520008B188A19891AC2927B007A00790D751F7F
:10053000057F3012059C7B007A007908751F057FC6
:100540002A12059CAB18AA19A91A751F057FA012BB
:10055000059C7D0E7F201206F3D2927F017E000261
:10056000067EE4F519F518E519C313F519C2B37F32
:10057000027E001206CDD2B330B30543198080004D
:100580007F287E001206CDD2B37F017E001206CDF9
:100590000518E518C3940840CEAF19228B1C8A1D9C
:1005A000891EC2931206B4AD07E4FCECC3951F503C
:1005B00018AB1C051EE51EAA1D7002051D14F912BC
:1005C00002C0FF1206B40C80E2D293AF05228B2A40
:1005D0008A2B892CC2931206B4AD07E4FCECC395B8
:1005E0002D5017E4FF1206B4AB2AAA2BA92C8C823B
:1005F000758300EF1202D90C80E3D293AF0522D2AB
:10060000B37F017E001206CDC2B37F5E7E0112066B
:10061000CDD2B37F0F7E001206CD20B3FD7F647E66
:10062000001206CDD2B37F967E000206CDC292D2D2
:1006300093C294E4FD7F211206F37F241206F30D8A
:100640007F221206F37D057F311206F37D327F256E
:100650001206F37D077F260206F305081221AA344D
:1006600043050D1221AA34430512A0000000000723
:100670002230302E30A1E600C10001210000EF1F22
:10068000AA0670011E4A6011E4FDEDC3940950EE04
:10069000E4FC0CBCB1FC0D80F122E4F592F5911262
:1006A00005FF1206E012062D7FF47E0112067E126F
:1006B000046380FBE4FEEF339295EF25E0FFD294D4
:1006C000A296E4334207C2940EBE08EA22E4FDFC7F
:1006D000C3ED9FEC9E5008000DBD00010C80F1227F
:1006E000759850438E01538EFB75D7E875D6FF433E
:1006F0008E1022C2931206B4AC07AF051206B4D214
:1007000093AF0422C2931206B4E4FF1206B4D2934C
:0B0710002230313233343536373839AF
:00000001FF
