:0F060E00C0DBBCC6BFAABBFA3A2564B4CE0A0053
:1005CE001409000000000000000000000000000000
:0905DE000000000000000108000B
:1005E80053890F438920439850758DFD758BFDC243
:0405F800ABD28E22D2
:0506390012063ED296FE
:07063E00E4FF000FBF04FB05
:010645002292
:10056700E4FDFCEFFBC3ED9B7480F86C985015E439
:10057700FBFA0BBB00010ABA03F8BBA8F50DBD00D7
:04058700010C80DF04
:01058B00224D
:1005FC0074092508F8A6070508E508B41403E4F502
:01060C0008E5
:01060D0022CA
:0A064600D297120639C29702063E51
:0A065000C297120639D29702063E47
:0E061D00C296C297D29612063EC296D297227D
:0E062B00C296D297D29612063EC296D297225F
:05058C00AF0412051789
:10059100E4FED29612063E309709EEC394FF500353
:0E05A1000E80F4A2979200C29612063EA200AF
:0105AF002229
:02051700AE072D
:10051900E4FDC29612063EEE5480FFC41313135431
:100529000124FF9297120639EE25E0FE0DBD08E27F
:07053900C296D29702063EB4
:1005B000E4FEFDC296120639EE25E0FE30970343B5
:0D05C00006010DBD08EDAF061205FCC29648
:0105CD00220B
:0604ED00AE07AC03AB05F5
:1004F300120646AF06120517120591AF0312051730
:10050300120591E4FBEBC39525500612058C0B8075
:04051300F402065098
:04047900AC07AA051D
:10047D0012064612058CAF021205171205911206CF
:10048D0046EC4401FFFC120517120591E4FCECC388
:10049D009B50131205B0EB14B5040512062B800307
:0904AD0012061D0C80E802065045
:1004B6001205E87B017DFF7FA012047905097F05FF
:1004C600120567752501AB097DFF7FA01204EDD2E9
:1004D600997BFF7A06790E75250085092612006537
:0704E6003099FDC29980FE70
:030000000203ED0B
:0C03ED00787FE4F6D8FD758135020434F9
:10000300E5312425F8E605312278223007027825E8
:10001300E475F0011203B702035F2000EB7F2ED2D9
:10002300008018EF540F2490D43440D4FF30040BD5
:10003300EF24BFB41A0050032461FFE532600215B8
:10004300320535E5357002053430070D7822E47545
:10005300F0011203B7EF0203A50205407403D207B0
:100063008003E4C207F5318B228A238924E4F53225
:10007300F534F535E53260077F2012003E80F575D3
:1000830033FFC201C200C202C203C205C206C208D4
:1000930012000CFF700D3007057F0012004FAF35C3
:1000A300AE3422B4255FC2D5C20412000CFF24D0A3
:1000B300B40A00501A75F00A783230D50508B6FF35
:1000C3000106C6A426F620D5047002D20380D924E3
:1000D300CFB41A00EF5004C2E5D20402024FD2019A
:1000E30080C6D20080C0D20280BCD2D580BAD205ED
:1000F30080B47F2012003E2002077401B532004015
:10010300F1120003FF12003E020077D208D20680EC
:1001130095120003FB120003FA120003F94A4B7015
:100123000679207A037BFF20022EE532602A7E00C7
:100133008E8275830012037860060EEE653370F0CD
:10014300C2D5EBC0E0EAC0E0E9C0E0EE120296D00F
:10015300E0F9D0E0FAD0E0FB12035FFF60AAEBC046
:10016300E0EAC0E0E9C0E012003ED0E02401F9D0AB
:10017300E03400FAD0E0FBE5330460DCD533D9800A
:10018300877BFF7A027992D202809C791080027970
:1001930008C206C2088008D2D5790A8004790AC247
:1001A300D5E533047002F533E4FAFDFEFF120003D4
:1001B300FC7B08200113120003FD7B1030000A12A0
:1001C3000003FE120003FF7B20EC3382D592D5504F
:1001D30013C3E43000069FFFE49EFEE42001039D69
:1001E300FDE49CFCE4CBF8C201EC700CCFCECDCC8B
:1001F300E824F8F870F38017C3EF33FFEE33FEED16
:1002030033FDEC33FCEB33FB994002FB0FD8E9EBF6
:10021300300105F8D0E0C448B201C0E00AEC4D4E0D
:100223004F78207B0070C2EAB5330040BCC0E012B7
:100233000298D0F0D0E0200104C4C0E0C4B201C0F1
:10024300F0120027D0F0D5F0EB0200771203C701BC
:100253001453018E5800E54C00E14201924F019A7C
:0F02630044019A4900FA4301A0550184460184E1
:100272004501844703405000E92D00ED2E01102B6B
:1002820000F123010E2003292A00A94800000108D9
:100292003F3F3F00790AA2D5200314300509B91067
:1002A200020404B9080104A2D52006025001042068
:1002B20002689202B532005034C0E07F2030031948
:1002C2007F30A20272067205500F1202EFC202C202
:1002D20006C205C2087F30800F300503E9C0E01274
:1002E200003E300503D0E0F9D0E0B532CC3005173E
:1002F2007F30B9100C12003E7F583004077F78809F
:1003020003B9080312003E3002057F2D02003E7F32
:10031200202008F87F2B2006F322920280CF286E3D
:10032200756C6C2900D2011200033001F8C2017809
:100332003230D50108F60200A92D50434958120067
:10034200032403B405004001E490033B9312002F01
:0D035200743A12002FD20375320402018E9E
:1003F9000204B6E493A3F8E493A34003F68001F260
:1004090008DFF48029E493A3F85407240CC8C33304
:10041900C4540F4420C8834004F456800146F6DFD3
:10042900E4800B01020408102040809005CEE47E90
:10043900019360BCA3FF543F30E509541FFEE493C8
:10044900A360010ECF54C025E060A840B8E493A38F
:10045900FAE493A3F8E493A3C8C582C8CAC583CABA
:10046900F0A3C8C582C8CAC583CADFE9DEE780BE72
:0105E7000013
:10035F00BB010689828A83E0225002E722BBFE029C
:09036F00E32289828A83E49322CF
:10037800BB010CE58229F582E5833AF583E022503A
:1003880006E92582F8E622BBFE06E92582F8E22284
:0D039800E58229F582E5833AF583E493229E
:1003A500BB010689828A83F0225002F722BBFE0137
:0203B500F32231
:1003B700FAE6FB0808E6F925F0F618E6CA3AF62247
:1003C700D083D082F8E4937012740193700DA3A3C5
:1003D70093F8740193F5828883E4737402936860D9
:0603E700EFA3A3A380DFD9
:10054000EFB40A07740D12054B740A309811A8997C
:10055000B8130CC2983098FDA899C298B811F6301B
:0705600099FDC299F59922F3
:00000001FF
