:1004B0003031323334353637383954494D453A20A6
:0E04C00000534554200041444400535542006F
:10043E00011700011800011A000116000111000138
:10044E00130001080002090000010B00010C00025C
:09045E000D0000010F0001100067
:08046800C2B4D2B37F017E0093
:10047000EF1FAA0670011E4A6013E4FCFDC3ED9451
:0D0480007DEC940050EA0DBD00010C80F0F1
:01048D00224C
:0704E3007FCA1205067F2805
:0C04EA00AB07D2B51204688B90C2B3229D
:0C050600AB07C2B51204688B90C2B32290
:10032D000516E516B43C05E4F5160515E515B43CC2
:10033D0005E4F5150514E514B41803E4F514E516F4
:10034D0075F00A8485F012E51675F00A84F51AE544
:10035D001575F00A8485F01BE51575F00A84F518FE
:10036D00E51475F00A8485F019E51475F00A84F525
:02037D00172245
:1002D800EF14600F14601424027016E516601215EE
:1002E80016800EE515600A15158006E514600215DE
:1002F80014E51675F00A8485F012E51675F00A847F
:10030800F51AE51575F00A8485F01BE51575F00AF0
:1003180084F518E51475F00A8485F019E51475F06C
:050328000A84F5172214
:10027100EF14601514602024027028E516B43B05C4
:10028100E4F516801E0516801AE515B43B05E4F564
:100291001580100515800CE514B41705E4F51480DC
:1002A100020514E51675F00A8485F012E51675F05D
:1002B1000A84F51AE51575F00A8485F01BE51575B4
:1002C100F00A84F518E51475F00A8485F019E5142F
:0702D10075F00A84F5172205
:0200BD00A90791
:1000BF00E4F51C7FCA120506E91460421460772428
:1000CF0002600302015BE51170097F281204EA7FC9
:1000DF00538013E5117F28B401071204EA7F4D8086
:1000EF00051204EA7F481204EA7F291204EAE4F9B0
:1000FF00E99004CA93FF1204EA09B904F322E51147
:10010F0070097F281204EA7F538013E5117F28B40A
:10011F0001071204EA7F4D80051204EA7F4812049A
:10012F00EA7F291204EAE4F9E99004C693FF120466
:10013F00EA09B904F3227FCA120506E4F51C7F20F1
:0C014F001204EA051CE51CD3940640F2E3
:01015B002281
:1004F600758901758CD8758AF0D2A9D2AFD28C22B3
:03000B0002037F6E
:10037F00C0E0C0F0C083C082C0D075D000C000C044
:0D038F0001C002C003C004C005C006C007C5
:10039C000508758CD8758AF0E508B46406750800F4
:0803AC0012032DE4FF1203CF40
:1003B400D007D006D005D004D003D002D001D0009D
:0B03C400D0D0D082D083D0F0D0E03247
:1004CE00E4F97F80120506E99004C193FF1204EA55
:0404DE0009B904F361
:0104E20022F7
:1001E800A2B2E433F50CE50B14601214601D146020
:1001F8004F24037070E50C706C750B0122E50C70D0
:1002080008F509F50A750B0222805A050AE50A70F5
:1002180002050930B215E513600FAF111202717FA4
:10022800011203CF7F011200BD803AE50A64C84578
:10023800097035F509F50A7F021200BD750B032216
:10024800B28C208C1B1204CE751301E4F511120434
:10025800E37F531204EA7F291204EA30B2FD8003D7
:08026800E4F5138000E4F50B3E
:01027000226B
:10000E00A2B7E433F510E50F1460151460201460E8
:10001E004F240360030200B9E5107032750F012200
:10002E00E5107008F50DF50E750F02228020050EF5
:10003E00E50E7002050D30B717E5136011AF111202
:10004E0002D87F011203CFE4FF1200BD805D805BFA
:10005E00E50E6496450D7056F50DF50E750F0322DF
:10006E00E513604505117FCA120506E511B40303B9
:10007E00E4F511E511700C7F021200BD1204E37F4E
:10008E00538019E5117F02B4010A1200BD1204E378
:10009E007F4D80081200BD1204E37F481204EA7FF0
:0E00AE00291204EA30B7FD80028000E4F50F4D
:0100BC002221
:10048E00E4F97F01FE1204707F801205067F057E5F
:10049E0000120470E99004BA93FF1204EA09B90538
:0104AE00F35A
:0104AF00222A
:1003CF00EF700312048E7F86120506E5179004B0B6
:1003DF0093FF1204EAE51993FF1204EA7F3A12041D
:1003EF00EAE51893FF1204EAE51B93FF1204EA7F74
:1003FF003A1204EAE51A93FF1204EAE51293FF0298
:02040F0004EAFD
:100411007F381205067F0C1205067F061205067F3E
:10042100011205061204F61201E87F0A7E00120489
:0D0431007012000E7F0A7E0012047080EA37
:0300000002015C9E
:0C015C00787FE4F6D8FD75811C0201A339
:10016800020411E493A3F8E493A34003F68001F298
:1001780008DFF48029E493A3F85407240CC8C33398
:10018800C4540F4420C8834004F456800146F6DF67
:10019800E4800B010204081020408090043EE47EB5
:1001A800019360BCA3FF543F30E509541FFEE4935C
:1001B800A360010ECF54C025E060A840B8E493A323
:1001C800FAE493A3F8E493A3C8C582C8CAC583CA4E
:1001D800F0A3C8C582C8CAC583CADFE9DEE780BE06
:010467000094
:00000001FF
