:0C024200020827E0020C27A0020A23801B
:05029900007F19DFFEEB
:01029E00223D
:080290007F6C7E91DEFEDFFCB5
:010298002243
:10025E00E4758F017E82120299DEFBE4F58F7E1E1D
:08026E00120299DEFBE4F58F9A
:010276002265
:10027700E4758F017E30120299DEFBE4F58F7E7202
:08028700120299DEFBE4F58F81
:01028F00224C
:040003008E138F14B5
:10000700751500751603AD14AC137B0B7A00EC3035
:10001700E705120277800312025EED25E0FDEC335F
:10002700FCEB1B70011AEB4A70E4E5148513F01220
:1000370001EA00712380007127A0004927E0000032
:10004700009A758F017A007B76120299EB1B70017B
:100057001AEB4A70F4E4F58F7A027B85120299EB6A
:100067001B70011AEB4A70F48026758F017A007BAA
:100077002C120299EB1B70011AEB4A70F4E4F58F0E
:100087007A027BC9120299EB1B70011AEB4A70F4D2
:10009700E4F58FE516151670021515D3E5169400CD
:0900A700E5159400400302000D70
:0100B000222D
:10021700E4F5B2F5B175AA6375AB80438E80F589B5
:100227005389FB758A6F758CFFD28C758702000026
:0B0237001201B212013D12017880F0AC
:0F024E00010E00010F000110000111000112004C
:1001B200A2B2E433FFE50E1460101460162402703C
:1001C20023EF6002801E750E0122EF60028015751A
:1001D2000E0222EF600AE4F50EAF09AE0812000328
:0701E20020B20422E4F50E37
:0101E90022F3
:10013D00A2B1E433FFE50F146010146019240270AE
:10014D0026EF60028021750F0122EF60028018E416
:10015D00F510750F0222EF600AE4F50FAF0DAE0C2E
:0A016D0012000320B10422E4F50F94
:010177002265
:10017800A2B0E433FFE51114601014601624027075
:1001880025EF6002802075110122EF60028017754B
:100198001102220512EF600AE4F511AF0BAE0A1244
:0901A800000320B00422E4F5116B
:0101B100222B
:030000000200B14A
:0C00B100787FE4F6D8FD7581160200F897
:1001EA00D083D082F8E4937012740193700DA3A3A4
:1001FA0093F8740193F5828883E473740293B5F0DB
:0D020A00067403936860E9A3A3A3A380D842
:1000BD00020217E493A3F8E493A34003F68001F240
:1000CD0008DFF48029E493A3F85407240CC8C33344
:1000DD00C4540F4420C8834004F456800146F6DF13
:1000ED00E4800B0102040810204080900242E47E5F
:1000FD00019360BCA3FF543F30E509541FFEE49308
:10010D00A360010ECF54C025E060A840B8E493A3CE
:10011D00FAE493A3F8E493A3C8C582C8CAC583CAF9
:10012D00F0A3C8C582C8CAC583CADFE9DEE780BEB1
:01025D0000A0
:00000001FF
