:10000300AF08120081E508F4FF1200867F147E001A
:10001300EF1FAA0670011E4A6013E4FCFDC3ED94B2
:0D00230058EC940250EA0DBD00010C80F075
:0100300022AD
:10005C0075D902E4F5E9F5F975DA42F5EAF5FA75C0
:09006C00DB42F5EBF5FBD2DE22CC
:050081008FEA8FFA2256
:050086008FEB8FFB224F
:0300310012005C5E
:10003400E4F508120003C297D2960508E508C394B4
:10004400FF40F07508FFE508D3940040E312000375
:08005400D297C296150880EE58
:0300000002007586
:0C007500787FE4F6D8FD758108020031A8
:00000001FF
