:10016D00AD071FED6011E4FEEEC3940950F2E4FDFE
:07017D000DBDB1FC0E80F185
:010184002258
:1001AF0053890F438920439850758DFD758BFDC280
:0401BF00ABD28E220F
:100118007512A21201AF12019A1200031200EC7FAD
:100128000A12016D8518993099FDC2997F641201F0
:030138006D80E9EE
:0E01850005081221AA3443050D1221AA3443A5
:10013B00E4FEEF339295EF25E0FFD297A296E433DE
:08014B004207C2970EBE08EA4C
:010153002289
:1001C300C29412013BAC07AF0512013BD294AF04BA
:0101D3002209
:0C01D400C29412013BE4FF12013BD294E4
:0101E00022FC
:0600BA008B148A15891663
:1000C000C29412013BAD07E4FCECC395175018AB8A
:1000D000140516E516AA157002051514F912015437
:0B00E000FF12013B0C80E2D294AF0540
:0100EB0022F2
:10000300C292D294C297E4FD7F211201C37F2212D0
:1000130001C37F241201C37D287F251201C37D07FD
:050023007F260201C36D
:1000EC00C2927B007A00790D7517057F301200BA29
:1000FC007B007A0079197517047FA01200BA7D0E67
:0C010C007F201201C3D2927F0102016D1E
:060193000419AA11223339
:10019A0075910175920175C5E800000000D2AD4362
:0501AA008E10D2AF220F
:03002B000201E1EE
:0A01E10053C5EF85C61843C5083268
:0300000002002ECD
:0C002E00787FE4F6D8FD75811C02007597
:10015400BB010689828A83E0225002E722BBFE02A9
:09016400E32289828A83E49322DC
:10003A00020118E493A3F8E493A34003F68001F2C3
:10004A0008DFF48029E493A3F85407240CC8C333C7
:10005A00C4540F4420C8834004F456800146F6DF96
:10006A00E4800B0102040810204080900185E47EA0
:10007A00019360BCA3FF543F30E509541FFEE4938B
:10008A00A360010ECF54C025E060A840B8E493A352
:10009A00FAE493A3F8E493A3C8C582C8CAC583CA7D
:1000AA00F0A3C8C582C8CAC583CADFE9DEE780BE35
:010199000065
:00000001FF
