:10030C0053890F438920439850758DFD758BFDC221
:04031C00ABD28E22B0
:0D035500E47F091203718F993099FDC29960
:010362002278
:1003200012030C1201D07FE87E031202B7120355AC
:0203300080FB50
:1002D70005081221AA3443050D1221AA3443051239
:0502E700000000000012
:1002F300E4FEEF339294EF25E0FFD295A293E4332B
:080303004207C2950EBE08EA94
:01030B0022CF
:10034400C2961202F3AC07AF051202F3D296AF04C1
:010354002286
:0C037100C2961202F3E4FF1202F3D296CF
:01037D00225D
:060254008B228A2389249D
:10025A00C2961202F3AD07E4FCECC395255018AB25
:10026A00220524E524AA237002052314F91202198F
:0B027A00FF1202F30C80E2D296AF05E9
:010285002256
:060286008B188A19891A89
:10028C00C2961202F3AD07E4FCECC3951B5017E4C5
:10029C00FF1202F3AB18AA19A91A8C82758300EF0E
:0A02AC001202320C80E3D296AF0577
:0102B6002225
:1001D000C297D296C2957B007A00790D7525057F6E
:1001E000301202547B007A0079087525057F2A12A7
:1001F00002547D057F31120344E4FD7F2112034444
:100200007F241203440D7F221203447D287F251290
:0902100003447D077F260203442C
:10033200C2977D0F7F20120344D2977FC87E0002AE
:02034200036353
:100184007F071203718F20300641C297751B057FCC
:1001940061120286E512B4AA17E513B4BB12E51482
:1001A400B4CC0DE515B4DD08E516B4EE0312000376
:1001B400E4FF74122FF8E6F599E4F63099FDC2993C
:0B01C4000FBF05EE7D7E7F2712034475
:0101CF00220D
:1002B700E4FDFCC3ED9FEC9E5015E4FBFA0BBB007D
:0F02C700010AEB64784A70F50DBD00010C80E46C
:0102D6002205
:0E036300EF1FAC0670011E4C60030080F322F9
:0602EC00011C00011D00D1
:10000300E4F51ED2B2C2B3C2B4C2B57F147E0012ED
:1000130002B7C2B2D2B3C2B4C2B57F147E00120219
:10002300B7C2B2C2B3D2B4C2B57F147E001202B754
:10003300C2B2C2B3C2B4D2B57F147E001202B705F6
:100043001EE51EC394F040BB7F407E1F1202B7E43F
:10005300F51EC2B2C2B3C2B4D2B57F147E0012027F
:10006300B7C2B2C2B3D2B4C2B57F147E001202B714
:10007300C2B2D2B3C2B4C2B57F147E001202B7D2E9
:10008300B2C2B3C2B4C2B57F147E001202B7051E5A
:0F009300E51EC394F040BBC2B2C2B3C2B4C2B543
:0100A200223B
:10012F00A2B7E433F51FE51C14601214601B1460B2
:10013F002F2403703CE51F7036751C0122E51F70DC
:10014F0006F51D751C02228026051DE51F60051290
:10015F000003801DE51DB4641BE4F51D751C03220F
:10016F00051DE51DB40A04E4F51D22E51F60058099
:04017F0000E4F51C87
:010183002259
:030000000200A358
:0C00A300787FE4F6D8FD7581250200EAA4
:10021900BB010689828A83E0225002E722BBFE02E3
:09022900E32289828A83E4932216
:10023200F8BB010DE58229F582E5833AF583E8F002
:10024200225006E92582C8F622BBFE05E92582C8AE
:02025200F22296
:1000AF00020320E493A3F8E493A34003F68001F244
:1000BF0008DFF48029E493A3F85407240CC8C33352
:1000CF00C4540F4420C8834004F456800146F6DF21
:1000DF00E4800B01020408102040809002D7E47ED8
:1000EF00019360BCA3FF543F30E509541FFEE49316
:1000FF00A360010ECF54C025E060A840B8E493A3DD
:10010F00FAE493A3F8E493A3C8C582C8CAC583CA07
:10011F00F0A3C8C582C8CAC583CADFE9DEE780BEBF
:0102F200000B
:00000001FF
