:100000000200AC020006C0E0C0D075D000C004C041
:1000100005C006C007E4FDFCC2A820B20712014BD0
:10002000050880F6E508C394505004D2A880707586
:10003000080030B20712014B050880F6E508C394AA
:100040001E5004D2A88058AF040CEFC39420503A3D
:10005000750800EDC313FD30B2FD30B20712014B3D
:10006000050880F6E508D3940A4003430580BC08E0
:10007000048D0980D2BC10048D0A80CBBC18048D7D
:100080000B80C4BC20C18D0C80BDE50CF4650B60F9
:1000900004D2A8800A850C993099FDC299D2A8D0C3
:1000A00007D006D005D004D0D0D0E032787FE4F677
:1000B000D8FD75810C0200F302015CE493A3F8E41F
:1000C00093A34003F68001F208DFF48029E493A3B0
:1000D000F85407240CC8C333C4540F4420C88340C9
:1000E00004F456800146F6DFE4800B010204081098
:1000F00020408090016BE47E019360BCA3FF543FDD
:1001000030E509541FFEE493A360010ECF54C025CF
:10011000E060A840B8E493A3FAE493A3F8E493A3BF
:10012000C8C582C8CAC583CAF0A3C8C582C8CAC523
:1001300083CADFE9DEE780BE759850438E01438EA7
:100140000475D78F75D6FD438E10227F037E52DE55
:10015000FEDFFC228F993099FDC2992212013812DC
:0F016000016480FEC288D2A8D2AF22010800003D
:00000001FF
