:100171008482808C88868583818D8987FEFDFBF74B
:10018100FFC0F9A4B0999282F880908883C6A186B5
:010191008EDF
:10019200060D16381E10050C050800000000000BA5
:0C01A2001300000000000000000000003E
:0601CB00C2827F017E00EC
:1001D100E4FDFCC3ED9FEC9E5008000DBD00010C39
:0201E10080F1AB
:0101E30022F9
:1001F800E4FEC280EF139281D280EFC313FF0EBEDC
:0202080008F0FC
:01020A0022D1
:10014E00AB05AA071201CBC2801201D1D2821201D5
:10015E00D1AF021201F8AF031201F81201CBD28116
:03016E00D280221A
:02011500AB0736
:10011700E4FAC2827F01FE1201D1C2801201D1D25C
:10012700821201D1AF031201F8E4FFEAC313FAC246
:1001370080308103430280D2800FBF08EE1201CBCB
:06014700D281D280AF025C
:01014D00228F
:1000DB00E4F9740D29F8E6FF75F00A84FEEF75F06C
:1000EB000A84AFF0EEC454F04FFD740D29F8A60549
:1000FB0009B906DEE4F9E990017193FF740D29F853
:09010B00E6FD12014E09B906EDF2
:0101140022C8
:1001E40053890F438920439850758DFD758BFDC24B
:0401F400ABD28E22DA
:1001AF00E4FF7590FF74152FF8E690018293F580A8
:0B01BF00EF90017D93F5900FBF05E766
:0101CA002212
:10008F001201E4E4FD7F8E12014E7D807F8E1201FE
:10009F004EE4F9E990017793FF120115740829F8DE
:1000AF00A607740829F8E6C4540FFFE925E02413C6
:1000BF00F8A607740829F8E6540FFFE925E0241481
:0C00CF00F8A60709B906CC1201AF80C5E5
:03000000020003F8
:0C000300787FE4F6D8FD75811D02004AEC
:10000F0002008FE493A3F8E493A34003F68001F278
:10001F0008DFF48029E493A3F85407240CC8C333F2
:10002F00C4540F4420C8834004F456800146F6DFC1
:10003F00E4800B0102040810204080900192E47EBE
:10004F00019360BCA3FF543F30E509541FFEE493B6
:10005F00A360010ECF54C025E060A840B8E493A37D
:10006F00FAE493A3F8E493A3C8C582C8CAC583CAA8
:10007F00F0A3C8C582C8CAC583CADFE9DEE780BE60
:0101AE000050
:00000001FF
