:100003000B2100000100000101010101010B390076
:10001300000100000101010100010B2C000001009F
:0D0023000000010101000002370000C18053
:10032300438E0475D76475D6FF438E1075AF04D220
:02033300AF22F7
:0300630002030D88
:10030D00C0E00538E53870020537300004D2B380FF
:06031D0002B2B3D0E03291
:060066008B088A09890ADB
:10006C00E4FF85080B85090C850A0DE4FEAB0BAA91
:10007C000CA90D8E827583001202E06026E4F53720
:10008C00F538C200C3E5389429E537940040F5E40F
:10009C00F537F538D200C3E538945BE5379400505A
:1000AC002680F3E4F537F538C200C3E538946AE5E9
:1000BC0037940040F5E4F537F538D200C3E53894B1
:1000CC0019E537940040F50EBE0BA2E4F537F53870
:1000DC00C200C3E538946AE537940040F5E4F5377F
:1000EC00F538D200C3E5389426E537940240F50F75
:0800FC00EF6403600302006ED3
:0101040022D8
:060105008B088A09890A3B
:10010B00E4FF85080B85090C850A0DE4FEAB0BAAF1
:10011B000CA90D8E827583001202E06026E4F53780
:10012B00F538C200C3E5389429E537940040F5E46F
:10013B00F537F538D200C3E538945BE537940050BA
:10014B002680F3E4F537F538C200C3E538946AE549
:10015B0037940040F5E4F537F538D200C3E5389411
:10016B0019E537940040F50EBE0BA2E4F537F538D0
:10017B00C200C3E5389429E537940040F5E4F53720
:10018B00F538D200C3E538946EE537940240F50F8D
:08019B00EF6403600302010D93
:0101A3002239
:0E0335001203231202A712023012026C80F58E
:10004000E4FDFCC3ED9FEC9E5015E4FBFA0BBB00F6
:0F005000010AEB64784A70F50DBD00010C80E4E5
:01005F00227E
:0E034300EF1FAC0670011E4C60030080F32219
:0F003000010E00010F000110000111000112006C
:1002A700A2B2E433FFE50E14601014601624027046
:1002B70024EF6002801F750E0122EF600280167521
:1002C7000E0222EF600BE4F50EFB7A007921120093
:0802D7006620B20422E4F50EDA
:0102DF0022FC
:10023000A2B1E433FFE50F146010146019240270BA
:1002400027EF60028022750F0122EF60028019E41F
:10025000F510750F0222EF600BE4F50FFB7A0079C1
:0B0260003912010520B10422E4F50F63
:01026B002270
:10026C00A2B0E433FFE51114601014601624027080
:10027C0026EF6002802175110122EF600280187553
:10028C001102220512EF600BE4F511FB7A00792CB8
:0A029C0012010520B00422E4F51160
:0102A6002235
:030000000201A456
:0C01A400787FE4F6D8FD7581430201EB82
:1002E000BB010CE58229F582E5833AF583E02250D3
:1002F00006E92582F8E622BBFE06E92582F8E2221D
:0D030000E58229F582E5833AF583E4932236
:1001B000020335E493A3F8E493A34003F68001F22D
:1001C00008DFF48029E493A3F85407240CC8C33350
:1001D000C4540F4420C8834004F456800146F6DF1F
:1001E000E4800B0102040810204080900003E47EAC
:1001F000019360BCA3FF543F30E509541FFEE49314
:10020000A360010ECF54C025E060A840B8E493A3DA
:10021000FAE493A3F8E493A3C8C582C8CAC583CA05
:10022000F0A3C8C582C8CAC583CADFE9DEE780BEBD
:01003F0000C0
:00000001FF
