:06010400010800010900E2
:10008F00E50814601114601914602B24037039EF04
:10009F00703475080122EF7006F509750802228089
:1000AF00250509EF6004B2B5801EE5096464701B75
:1000BF00F509750803220509E509B40A06E4F509EF
:0B00CF00B2B522EF60058000E4F508E8
:0100DA002203
:0C00F800758901758CD8758AF0D28C22B5
:1000DB001200F8E4F5B1F5B2308DFDC28D758CD8F8
:0D00EB00758AF0A2B3E433FF12008F80EBA2
:03000000020003F8
:0C000300787FE4F6D8FD75810902004A00
:10000F000200DBE493A3F8E493A34003F68001F22C
:10001F0008DFF48029E493A3F85407240CC8C333F2
:10002F00C4540F4420C8834004F456800146F6DFC1
:10003F00E4800B0102040810204080900104E47E4C
:10004F00019360BCA3FF543F30E509541FFEE493B6
:10005F00A360010ECF54C025E060A840B8E493A37D
:10006F00FAE493A3F8E493A3C8C582C8CAC583CAA8
:10007F00F0A3C8C582C8CAC583CADFE9DEE780BE60
:01010A0000F4
:00000001FF
