:090614002564000A0025780A00A3
:0D05F90002230000C10BC10A012200C1094C
:1005D50053890F438920439850758DFD758BFDC256
:0405E500ABD28E22E5
:07061D00D288D2A8D2AF225F
:0300030002050CE7
:09050C00C0E0C0D075D000C000B1
:1005150020090AD209752300752400803630093375
:10052500C3E5249420E5239400400DE5249432E5A9
:10053500239400500375220074292522F8A62475FA
:1005450023007524000522E522B42107752200C287
:0305550009D20BBD
:07055800D000D0D0D0E0324A
:1005E9005389F0438902E4F58CF58AD2A9D28C2289
:03000B00020607E3
:0D060700C0E00524E52470020523D0E03298
:10055F00E4FE7C01E4FD74292CF8E6D394064005F3
:10056F004307808000EDC394075004EFC313FF0CC3
:10057F000DBD08E274252EF8A607E4FF0EBE04D4C5
:08058F00E528F4B52702D20AA9
:010597002241
:1005BF00E527B44506E4F527B29722E527B44605AB
:0605CF00E4F527B29622BC
:100484001205D51205E912061DD297300B63C20B73
:1004940012055FE4F508D2997BFF7A067914742972
:1004A4002508F8E6750C00F50D1200703099FDC2B0
:1004B400990508E508C3942140DCD2997BFF7A06AC
:1004C40079171200703099FDC299E4F508D2997B2E
:1004D400FF7A06791974252508F8E6750C00F50DE0
:1004E4001200703099FDC2990508E508C3940440D0
:1004F400DC300A0FC20AE527B40308E528B4FC037C
:080504006390FF1205BF808324
:030000000203F800
:0C03F800787FE4F6D8FD75814902043FCF
:10000E00E518240CF8E60518227809300702780C5A
:10001E00E475F0011203C202036A2000EB7F2ED2B8
:10002E00008018EF540F2490D43440D4FF30040BCA
:10003E00EF24BFB41A0050032461FFE519600215C6
:10004E0019051CE51C7002051B30070D7809E475B7
:10005E00F0011203C2EF0203B00205987403D20737
:10006E008003E4C207F5188B098A0A890BE4F51997
:10007E00F51BF51CE51960077F2012004980F57508
:10008E001AFFC201C200C202C203C205C206C208E2
:10009E00120017FF700D3007057F0012005AAF1CBB
:1000AE00AE1B22B4255FC2D5C204120017FF24D0A6
:1000BE00B40A00501A75F00A781930D50508B6FF43
:1000CE000106C6A426F620D5047002D20380D924D8
:1000DE00CFB41A00EF5004C2E5D20402025AD20184
:1000EE0080C6D20080C0D20280BCD2D580BAD205E2
:1000FE0080B47F201200492002077401B519004018
:10010E00F112000EFF120049020082D208D20680C0
:10011E009512000EFB12000EFA12000EF94A4B70E9
:10012E0006792B7A037BFF20022EE519602A7E00CA
:10013E008E8275830012038360060EEE651A70F0D0
:10014E00C2D5EBC0E0EAC0E0E9C0E0EE1202A1D0F9
:10015E00E0F9D0E0FAD0E0FB12036AFF60AAEBC030
:10016E00E0EAC0E0E9C0E0120049D0E02401F9D095
:10017E00E03400FAD0E0FBE51A0460DCD51AD98031
:10018E00877BFF7A02799DD202809C79108002795A
:10019E0008C206C2088008D2D5790A8004790AC23C
:1001AE00D5E51A047002F51AE4FAFDFEFF12000EF0
:1001BE00FC7B0820011312000EFD7B1030000A128A
:1001CE00000EFE12000EFF7B20EC3382D592D5502E
:1001DE0013C3E43000069FFFE49EFEE42001039D5E
:1001EE00FDE49CFCE4CBF8C201EC700CCFCECDCC80
:1001FE00E824F8F870F38017C3EF33FFEE33FEED0B
:10020E0033FDEC33FCEB33FB994002FB0FD8E9EBEB
:10021E00300105F8D0E0C448B201C0E00AEC4D4E02
:10022E004F78207B0070C2EAB51A0040BCC0E012C5
:10023E0002A3D0F0D0E0200104C4C0E0C4B201C0DB
:10024E00F0120032D0F0D5F0EB0200821203D20190
:10025E001F5301995800F04C00EC42019D4F01A52F
:0F026E004401A54901054301AB55018F46018F9E
:10027D0045018F47034B5000F42D00F82E011B2B29
:10028D0000FC2301192003342A00B4480000011397
:10029D003F3F3F00790AA2D5200314300509B9105C
:1002AD00020404B9080104A2D5200602500104205D
:1002BD0002689202B519005034C0E07F2030031956
:1002CD007F30A20272067205500F1202FAC202C2EC
:1002DD0006C205C2087F30800F300503E9C0E01269
:1002ED000049300503D0E0F9D0E0B519CC30051741
:1002FD007F30B9100C1200497F583004077F788089
:10030D0003B908031200493002057F2D0200497F11
:10031D00202008F87F2B2006F322920280CF286E32
:10032D00756C6C2900D20112000E3001F8C20178F3
:10033D001930D50108F60200B42D5043495812006A
:10034D000E2403B405004001E49003469312003AD5
:0D035D00743A12003AD20375190402019996
:10040400020484E493A3F8E493A34003F68001F286
:1004140008DFF48029E493A3F85407240CC8C333F9
:10042400C4540F4420C8834004F456800146F6DFC8
:10043400E4800B01020408102040809005F9E47E5A
:10044400019360BCA3FF543F30E509541FFEE493BD
:10045400A360010ECF54C025E060A840B8E493A384
:10046400FAE493A3F8E493A3C8C582C8CAC583CAAF
:10047400F0A3C8C582C8CAC583CADFE9DEE780BE67
:0106060000F3
:10036A00BB010689828A83E0225002E722BBFE0291
:09037A00E32289828A83E49322C4
:10038300BB010CE58229F582E5833AF583E022502F
:1003930006E92582F8E622BBFE06E92582F8E22279
:0D03A300E58229F582E5833AF583E4932293
:1003B000BB010689828A83F0225002F722BBFE012C
:0203C000F32226
:1003C200FAE6FB0808E6F925F0F618E6CA3AF6223C
:1003D200D083D082F8E4937012740193700DA3A3BA
:1003E20093F8740193F5828883E4737402936860CE
:0603F200EFA3A3A380DFCE
:10059800EFB40A07740D1205A3740A309811A899CC
:1005A800B8130CC2983098FDA899C298B811F630C3
:0705B80099FDC299F599229B
:00000001FF
